:1000000012C021C020C01FC01EC01DC01CC01BC00C
:100010001AC019C018C017C016C015C014C013C02C
:1000200012C048C110C011241FBECFE5D4E0DEBF0E
:10003000CDBF10E0A0E6B0E001C01D92AC37B10723
:10004000E1F790D1ADC1DCCFB99ABA9AC19AC29802
:1000500008950F931F93CF93DF93CDB7DEB72E97FD
:100060000FB6F894DEBF0FBECDBF198221E02A8300
:100070002B83FE01349620E030E001E010E0A8017F
:10008000022E02C0440F551F0A94E2F74823592359
:10009000A1E0452B09F4A0E0A1932F5F3F4F28304A
:1000A000310569F7AC0156954795569547959C01E2
:1000B00054E0369527955A95E1F724272827E6E05E
:1000C00096958795EA95E1F78227982F91709C87FE
:1000D000869581708D8781E08E876115710529F085
:1000E0008CB59DB586179707D8F3FE0131969EE033
:1000F0009E0F88E2C198C29A20E32A95F1F7C19A2F
:10010000C29820E32A95F1F78150A1F781918823C5
:1001100019F08CE28A95F1F79E13EBCF2E960FB66D
:10012000F894DEBF0FBECDBFDF91CF911F910F912D
:10013000089581B3837F81BB83B7846083BF12BE80
:100140008EB583608EBD1DBC1CBC08950F931F939C
:10015000CF93DF93FC01B99A20E030E082E0A1E088
:10016000B0E0C19A12BE83990BC092B79C3BD8F302
:1001700012BE2C5F3F4FE217F307A8F780E089C05B
:10018000B90112BE839B0BC092B79D38D8F3B90159
:100190006D5F7F4FE617F70788F39B01E2CF92B7B9
:1001A000903390F398B3982798BB12BE92B79630CD
:1001B000E8F3829904C092B79731D8F3EECF98B3A1
:1001C000982798BB8399E9CF12BE829B07C092B74C
:1001D0009F32D8F3E2CF92B79533F8F6829BFBCFEC
:1001E0008399DBCF92B79A32C0F298B3982798BB25
:1001F00012BEC0E0D0E020E030E092B79632E8F3E3
:1002000090B3947042B74633F8F440B34470911100
:1002100019C0C1F042B750E0475F5F4F839B05C0F4
:1002200002B710E040175107C8F7839909C0AD0124
:100230000C2E02C0440F551F0A94E2F7242B352BD5
:1002400012BE05C0942FDECF92B79E5292BF98B3D4
:10025000982798BB2196CA30D10579F6222309F454
:100260009CCF922F92959F70422F4695469594274A
:1002700092279370422F4295469546954370942756
:1002800093138BCF87EB9BE00197F1F700C0000041
:10029000822FDF91CF911F910F91089582B986B778
:1002A0008F7D86BF86B7856486BF8FEF80937B0086
:1002B000789408951F920F920FB60F9211248F9386
:1002C0009F93EF93FF9381B1887F803AF1F128F4F7
:1002D000803641F0803861F03AC0883AF1F0883BCE
:1002E000E1F035C085EC86BF8FEF80937B0031C095
:1002F00083B190917B009F3F29F48A3110F11092D5
:100300007B0023C090917B009A31C0F4E0917B0088
:10031000F0E0EE59FF4F808311C080917B008F3F4A
:1003200011F410927B0080917B008A3168F4E09197
:100330007B00F0E0EE59FF4F808183B980917B0014
:100340008F5F80937B0001C013B885EC01C085ED01
:1003500086BFFF91EF919F918F910F900FBE0F90ED
:100360001F901895B898C09A6FDEE3DEC1E084EF65
:1003700091E0ECDE98B39C2798BB982F907F903249
:10038000B1F71DBC1CBCB89AC09A8F70813029F49B
:1003900064EE73E282E190E05CDEB898C09AE7CF49
:0403A000F894FFCFFF
:00000001FF
