:100000008FC0A9C012C1A7C0A6C0A5C0A4C0A3C06C
:10001000A2C0A1C0A0C09FC09EC09DC09CC09BC0EC
:100020009AC040C198C000407A10F35A00A0724EA6
:1000300018090010A5D4E80000E87648170000E48D
:100040000B54020000CA9A3B000000E1F5050000D5
:1000500080969800000040420F000000A08601003A
:100060000000102700000000E8030000000064000A
:10007000000000000A000000000001000000000075
:100080002C76D888DC674F0823DFC1DFAE59E1B199
:10009000B796E5E3E453C63AE651997696E8E6C2A8
:1000A0008426EB898C9B62ED407C6FFCEFBC9C9FAF
:1000B00040F2BAA56FA5F490055A2AF75C936B6CD1
:1000C000F9676DC11BFCE0E40D47FEF520E6B500C5
:1000D000D0ED902E0300943577050080841E080033
:1000E00000204E0A000000C80C333333330F986EE3
:1000F00012831141EF8D2114893BE65516CFFEE6A0
:10010000DB18D1844B381BF77C1D901DA4BBE42465
:10011000203284725E228100C9F124ECA1E53D27E2
:1001200011241FBECFE5D4E0DEBFCDBF10E0A0E6B6
:10013000B0E0E4E8FEE002C005900D92A837B107F8
:10014000D9F710E0A8E7B0E001C01D92A539B107CA
:10015000E1F772D395C654CFB99ABA9AC19AC298A8
:100160000895CF93DF93CDB7DEB72E970FB6F894EF
:10017000DEBF0FBECDBF198221E02A832B83FE0193
:10018000349620E030E0A1E0B0E0AD01022E02C0E4
:10019000440F551F0A94E2F74823592361E0452B89
:1001A00009F460E061932F5F3F4F2830310569F714
:1001B000AC0156954795569547959C0154E0369568
:1001C00027955A95E1F72427282766E09695879585
:1001D0006A95E1F78227982F91709C8786958170A8
:1001E0008D8781E08E87FE0131969EE09E0F88E22A
:1001F000C198C29A20E32A95F1F7C19AC29820E3E8
:100200002A95F1F78150A1F78191882319F088E2AE
:100210008A95F1F79E13EBCF2E960FB6F894DEBFBA
:100220000FBECDBFDF91CF9108951F920F920FB6F1
:100230000F9211248F939F9382B78B3A70F082B7FD
:10024000863E58F408B600FC08C080917A008530DC
:1002500030F48F5F80937A0002C010927A00809110
:100260007A00853021F491E09093790002C01092D9
:1002700079008093780012BE88B7816088BF9F9113
:100280008F910F900FBE0F901F90189582B986B76F
:100290008F7D86BF86B7856486BF8FEF809394007D
:1002A000789408951F920F920FB60F9211248F9396
:1002B0009F93EF93FF9381B1887F803AF1F128F407
:1002C000803641F0803861F03AC0883AF1F0883BDE
:1002D000E1F035C085EC86BF8FEF8093940031C08C
:1002E00083B1909194009F3F29F48A3110F11092CC
:1002F000940023C0909194009A31C0F4E09194004E
:10030000F0E0E558FF4F808311C0809194008F3F4B
:1003100011F410929400809194008A3168F4E09175
:100320009400F0E0E558FF4F808183B980919400FC
:100330008F5F8093940001C013B885EC01C085EDF8
:1003400086BFFF91EF919F918F910F900FBE0F90FD
:100350001F901895CF93DF93FC01C081D181488114
:1003600081E090E0DC01018402C0AA0FBB1F0A9467
:10037000E2F79C01008402C0220F331F0A94E2F7C7
:100380002A2BDC01028402C0AA0FBB1F0A94E2F7E9
:10039000A22B9C01038402C0220F331F0A94E2F7B0
:1003A0002A2B20952423288360FF0BC0A081B181D4
:1003B0002C91008402C0880F991F0A94E2F7822BC7
:1003C0008C9361FF0DC0A081B1812C9181E090E000
:1003D000018402C0880F991F0A94E2F7822B8C9344
:1003E00062FF0DC0A081B1812C9181E090E0028478
:1003F00002C0880F991F0A94E2F7822B8C9363FF47
:100400000DC0A081B1812C9181E090E0038402C0F5
:10041000880F991F0A94E2F7822B8C93DF91CF917A
:100420000895FC01A081B1814C9121E030E0C90127
:10043000068002C0880F991F0A94E2F7842B8C93E0
:1004400084E08A95F1F7A081B1818C91068002C089
:10045000220F331F0A94E2F7209528232C93089546
:10046000FF920F931F93CF93DF93EC01F62E142F7F
:100470001F70042F02950F706FE06CDF81E0E88140
:10048000F9812081F8120BC081E090E00F8002C05A
:10049000880F991F0A94E2F78095822309C081E0B2
:1004A00090E00F8002C0880F991F0A94E2F7822B18
:1004B0008083E881F981208181E090E00E8002C094
:1004C000880F991F0A94E2F7809582238083602F1A
:1004D000CE0140DFCE01A5DF94EB9A95F1F7612FB5
:1004E000CE0138DFCE019DDF8FE697E10197F1F76E
:1004F00000C0000060E0CE01DF91CF911F910F910D
:10050000FF9028CF0F931F93CF93DF938C01EB01C4
:100510004991442321F060E0C801A2DFF9CFDF91C7
:10052000CF911F910F91089541E061E099CF42E092
:1005300061E096CF20E4629F400D1124405861E0B5
:100540008FCF0F931F93CF93DF93CDB7DEB7609715
:100550000FB6F894DEBF0FBECDBF8C01CB0150E0CB
:10056000BE016F5F7F4FEAD1BE016F5F7F4FC80151
:10057000C9DF60960FB6F894DEBF0FBECDBFDF9126
:10058000CF911F910F91089520E04AE0DACFEF92CA
:10059000FF920F931F93CF93DF93CDB7DEB7609792
:1005A0000FB6F894DEBF0FBECDBF7C01CB01BA0100
:1005B000202F8E010F5F1F4F41E0A0D1B801C7016E
:1005C000A1DF60960FB6F894DEBF0FBECDBFDF91FE
:1005D000CF911F910F91FF90EF9008950F9302E03C
:1005E00020E0D5DF0F910895CF92DF92EF92FF9236
:1005F0000F931F93CF93DF931F92CDB7DEB78C017C
:10060000F42E88E0689FB0011124462F406461E019
:10061000C801598325DFCF2C5981D52E7601E8E01A
:10062000EE0EF11CF60141916F0160E0C80118DF88
:10063000CE14DF04B9F70F90DF91CF911F910F9186
:10064000FF90EF90DF90CF900895FF920F931F934C
:10065000CF93DF93EC01EC81FD81308181E090E06C
:10066000BC010F8002C0660F771F0A94E2F7AC014D
:100670000E8002C0440F551F0A94E2F7462B432B0D
:10068000BC01088402C0660F771F0A94E2F7242F8A
:10069000262BAC01098402C0440F551F0A94E2F7CF
:1006A000422B9C010A8402C0220F331F0A94E2F7F6
:1006B000242B0B8402C0880F991F0A94E2F7822B27
:1006C000808383E0F82E01E010E0E881F9819081D9
:1006D000B8010F8002C0660F771F0A94E2F79801F5
:1006E0000E8002C0220F331F0A94E2F7262B292B1B
:1006F000B801088402C0660F771F0A94E2F7262B20
:10070000A801098402C0440F551F0A94E2F7822F02
:10071000842B98010A8402C0220F331F0A94E2F747
:10072000282BC8010B8402C0880F991F0A94E2F796
:10073000822B8083E881F9812081A8010E8002C08C
:10074000440F551F0A94E2F7C8010F8002C0880FBA
:10075000991F0A94E2F7842B80958223808387EC8B
:100760009FEA0197F1F700C00000E881F98120813C
:10077000C8010E8002C0880F991F0A94E2F7822BED
:100780008083E881F981908198010F8002C0220F57
:10079000331F0A94E2F7822F809589238083CE014C
:1007A00040DE87E99AE30197F1F700C00000CE012F
:1007B00038DE8BE291E00197F1F700C00000CE0136
:1007C00030DE8BE291E00197F1F700C0000062E0BB
:1007D000CE01C0DDCE0125DE8BE291E00197F1F77D
:1007E00000C0000048E261E0CE013ADE48E061E08E
:1007F000CE0136DE41E061E0CE0132DE46E061E06E
:10080000CE012EDE4CE061E0CE012ADE41E061E067
:10081000CE0126DE9FE729EA83E091502040804008
:10082000E1F700C00000FA94F1104FCFDF91CF91B3
:100830001F910F91FF900895CF93DF93CDB7DEB74F
:100840006D970FB6F894DEBF0FBECDBF8B988A9A16
:10085000929884E390E09F8B8E8B85E390E09B8B56
:100860008A8B83E390E09D8B8C8B81E0888F198E3F
:1008700083E08A8F82E08B8F85E08C8F84E08D8F80
:100880002FEF82E597E0215080409040E1F700C0D3
:100890000000CE014296D9DECE01429645DE60E6EA
:1008A00070E0CE0142962EDE57DC2FEB84ED91E016
:1008B000215080409040E1F700C0000081E1E6E671
:1008C000F0E0DE01119601900D928A95E1F710E0BB
:1008D000E1E0F0E0EC0FFD1FE10FF11D80818823C6
:1008E000B1F390E03EDC1F5F2FEF82E597E02150EF
:1008F00080409040E1F700C00000EACFEF920F93F4
:100900001F93CF93DF93E80147FD02C034E001C09D
:1009100034E1E42FFF27E7FDF095F7FF03C0F195E1
:10092000E195F109E32E022F2E2FAE0134D0CE0136
:10093000DF91CF911F910F91EF90089545325105AE
:1009400018F4423008F004C0FB011082CB01089576
:10095000BB274A3031F4992322F4BDE2909581956A
:100960009F4F01C0BB27FB015527AA27880F991F5E
:10097000AA1FA41710F0A41B83955051B9F7A05DCE
:10098000AA3308F0A95DA193009779F7B111B1934B
:100990001192CB0165C24F925F926F927F929F92AC
:1009A000AF92BF92CF92DF92EF92FF920F931F937D
:1009B000CF93DF93CDB7DEB729970FB6F894DEBF9C
:1009C0000FBECDBF6A01122FB02E2BE3201720F0EF
:1009D000FF24F394F00E02C0BCE3FB2E0F2D27E0A2
:1009E000AE014F5F5F4F64D1AC018981982F997040
:1009F000913031F0E1FC06C0E0FE06C090E205C097
:100A00009DE203C09BE201C090E0EE2DE07183FF08
:100A10003CC0911102C083E001C084E0811718F44A
:100A2000212F281B01C020E0E1110BC0F601822F0D
:100A300030E2882319F031938150FBCFC20ED11CD4
:100A400020E0992329F0D6019C93F60131966F019D
:100A5000C6010396E2FE0AC03EE4D6013C9341E49F
:100A600011964C93119712963C9306C03EE6F60100
:100A7000308341E641833283FC01322F40E233234D
:100A800009F442C041933150FACF82FF44C0911122
:100A900002C083E001C084E0811718F4212F281BD5
:100AA00001C020E0E1110BC0F601822F30E2882363
:100AB00019F031938150FBCFC20ED11C20E0992355
:100AC00029F0D6019C93F60131966F01C601039679
:100AD000E2FE0BC039E4D6013C933EE411963C9310
:100AE000119736E412963C9307C039E6F60130833D
:100AF0003EE6318336E63283FC01322F40E2332377
:100B000019F041933150FBCFFC01E20FF11D10822F
:100B10008EEF9FEFB7C0F1E0911101C0F0E06F2FB1
:100B200070E01416150624F49A012F5F3F4F02C09F
:100B300021E030E0260F371FBB2029F06B2D70E03D
:100B40006F5F7F4F02C060E070E0260F371F612F9C
:100B500070E0261737071CF4121B212F01C020E07C
:100B60003E2D387159F4D601322F60E2332319F04B
:100B70006D933150FBCFC20ED11C20E0FF2331F02A
:100B8000D6019C93B6016F5F7F4F6B01E1110BC0E3
:100B9000F601922F30E3992319F031939150FBCF56
:100BA000C20ED11C20E09F2D940F3A81782F7071D6
:100BB000A72E84FF03C0313309F49150191624F491
:100BC000993018F098E001C091E0E42F852F57FF8D
:100BD00002C0E0E080E06E2F782FE0E0F0E0AEE2CF
:100BE0009A2E3A01691A71082A01461A570A0B2DE2
:100BF00010E01195019511096F3F8FEF780729F4E7
:100C0000D6019C92C60101966C014617570784F0E5
:100C1000661677066CF47F01E40CF51CA1E0B0E0E9
:100C2000AC0FBD1FEA0EFB1ED7011196BC9002C08F
:100C300090E3B92E615071093196C60101967C018D
:100C40006017710724F0D601BC926C01D5CF6417F0
:100C5000750741F4363320F4353321F4A11002C076
:100C600081E3B82EF601B082F701822F90E288234B
:100C700019F091938150FBCFF701E20FF11D108223
:100C800080E090E029960FB6F894DEBF0FBECDBF8E
:100C9000DF91CF911F910F91FF90EF90DF90CF9058
:100CA000BF90AF909F907F906F905F904F9008950E
:100CB000283008F027E03327DA01990F311D87FD2E
:100CC000916000966105710539F432602E5F3D93A5
:100CD00030E32A95E1F708959F3F30F080387105A1
:100CE000610509F03C5F3C5F3D93913008F08068FE
:100CF000911DDF93CF931F930F93FF92EF92192FC4
:100D0000987F9695E92F96959695E90FFF27E058DD
:100D1000FF4F99273327EE24FF24A701E701059011
:100D20000894079428F4360FE71EF81E491F511D3A
:100D3000660F771F881F991F0694A1F705900794E7
:100D400028F4E70EF81E491F561FC11D770F881F94
:100D5000991F661F0694A1F70590079428F4F80ED2
:100D6000491F561FC71FD11D880F991F661F771F68
:100D70000694A1F70590079420F4490F561FC71F4A
:100D8000D81F990F661F771F881F0694A9F78491B3
:100D90001095177041F0D695C79557954795F794DC
:100DA000E7941A95C1F7E6E2F0E068941590159182
:100DB00035916591959105907FE27395E118F10A5F
:100DC000430B560BC90BD009C0F7E10CF11E431FB2
:100DD000561FC91FD01D7EF4703311F48A95E6CFDB
:100DE000E894015030F0080F0AF40027021708F4C5
:100DF000202F2395022F7A3328F079E37D932A95CB
:100E0000E9F710C07D932A9589F606949795679522
:100E1000379517951794E118F10A430B560BC90B38
:100E2000D00998F023957E9173957A3308F070E39A
:100E30007C932013B8F77E9170617D9330F0839599
:100E400071E37D9370E32A95E1F71124EF90FF9011
:100E50000F911F91CF91DF91992787FD909508956C
:100E6000DC01FC01672F71917723E1F7329704C011
:100E70007C916D9370836291AE17BF07C8F308959C
:040E8000F894FFCF14
:100E840048656C6C6F0048656C6C6F204861636BDF
:080E9400616461792120000076
:00000001FF
