:100000008FC0A9C0A9C0A7C0A6C0A5C0A4C0A3C0D6
:10001000A2C0A1C0A0C09FC09EC09DC09CC09BC0EC
:100020009AC0D7C098C000407A10F35A00A0724E10
:1000300018090010A5D4E80000E87648170000E48D
:100040000B54020000CA9A3B000000E1F5050000D5
:1000500080969800000040420F000000A08601003A
:100060000000102700000000E8030000000064000A
:10007000000000000A000000000001000000000075
:100080002C76D888DC674F0823DFC1DFAE59E1B199
:10009000B796E5E3E453C63AE651997696E8E6C2A8
:1000A0008426EB898C9B62ED407C6FFCEFBC9C9FAF
:1000B00040F2BAA56FA5F490055A2AF75C936B6CD1
:1000C000F9676DC11BFCE0E40D47FEF520E6B500C5
:1000D000D0ED902E0300943577050080841E080033
:1000E00000204E0A000000C80C333333330F986EE3
:1000F00012831141EF8D2114893BE65516CFFEE6A0
:10010000DB18D1844B381BF77C1D901DA4BBE42465
:10011000203284725E228100C9F124ECA1E53D27E2
:1001200011241FBECFE5D4E0DEBFCDBF10E0A0E6B6
:10013000B0E0E2E1F1E102C005900D92AE36B10708
:10014000D9F710E0AEE6B0E001C01D92AB38B107C0
:10015000E1F70AD3DCC754CF1F920F920FB60F926C
:1001600011248F939F9382B78B3A70F082B7863EAB
:1001700058F408B600FC08C080917000853030F457
:100180008F5F8093700002C01092700080917000A9
:10019000853021F491E090936F0002C010926F00BF
:1001A00080936E0012BE88B7816088BF9F918F9147
:1001B0000F900FBE0F901F90189582B986B78F7D54
:1001C00086BF86B7856486BF8FEF80938A00789458
:1001D00008951F920F920FB60F9211248F939F9341
:1001E000EF93FF9381B1887F803AF1F128F4803654
:1001F00041F0803861F03AC0883AF1F0883BE1F094
:1002000035C085EC86BF8FEF80938A0031C083B103
:1002100090918A009F3F29F48A3110F110928A0050
:1002200023C090918A009A31C0F4E0918A00F0E0F6
:10023000EF58FF4F808311C080918A008F3F11F4E7
:1002400010928A0080918A008A3168F4E0918A00D5
:10025000F0E0EF58FF4F808183B980918A008F5F73
:1002600080938A0001C013B885EC01C085ED86BF7C
:10027000FF91EF919F918F910F900FBE0F901F9064
:100280001895CF93DF93FC01C081D181488181E033
:1002900090E0DC01018402C0AA0FBB1F0A94E2F7C0
:1002A0009C01008402C0220F331F0A94E2F72A2B1C
:1002B000DC01028402C0AA0FBB1F0A94E2F7A22B42
:1002C0009C01038402C0220F331F0A94E2F72A2BF9
:1002D00020952423288360FF0BC0A081B1812C913D
:1002E000008402C0880F991F0A94E2F7822B8C9336
:1002F00061FF0DC0A081B1812C9181E090E001846B
:1003000002C0880F991F0A94E2F7822B8C9362FF38
:100310000DC0A081B1812C9181E090E0028402C0E7
:10032000880F991F0A94E2F7822B8C9363FF0DC00C
:10033000A081B1812C9181E090E0038402C0880FFC
:10034000991F0A94E2F7822B8C93DF91CF91089545
:10035000FC01A081B1814C9121E030E0C90106800F
:1003600002C0880F991F0A94E2F7842B8C9382E0D5
:100370008A95F1F700C0A081B1818C91068002C0FE
:10038000220F331F0A94E2F7209528232C93089517
:10039000FF920F931F93CF93DF93EC01F62E142F50
:1003A0001F70042F02950F706FE06BDF81E0E88112
:1003B000F9812081F8120BC081E090E00F8002C02B
:1003C000880F991F0A94E2F78095822309C081E083
:1003D00090E00F8002C0880F991F0A94E2F7822BE9
:1003E0008083E881F981208181E090E00E8002C065
:1003F000880F991F0A94E2F7809582238083602FEB
:10040000CE013FDFCE01A4DF98E79A95F1F7612F87
:10041000CE0137DFCE019CDF8FE99FE00197F1F736
:1004200000C0000060E0CE01DF91CF911F910F91DD
:10043000FF9027CF0F931F93CF93DF938C01EB0196
:100440004991442321F060E0C801A2DFF9CFDF9198
:10045000CF911F910F91089541E061E099CF42E063
:1004600061E096CF20E4629F400D1124405861E086
:100470008FCF0F931F93CF93DF93CDB7DEB76097E6
:100480000FB6F894DEBF0FBECDBF8C01CB0150E09C
:10049000BE016F5F7F4F99D3BE016F5F7F4FC80171
:1004A000C9DF60960FB6F894DEBF0FBECDBFDF91F7
:1004B000CF911F910F91089520E04AE0DACFEF929B
:1004C000FF920F931F93CF93DF93CDB7DEB7609763
:1004D0000FB6F894DEBF0FBECDBF7C01CB01BA01D1
:1004E000202F8E010F5F1F4F41E04FD3B801C7018E
:1004F000A1DF60960FB6F894DEBF0FBECDBFDF91CF
:10050000CF911F910F91FF90EF9008950F9302E00C
:1005100020E0D5DF0F910895CF92DF92EF92FF9206
:100520000F931F93CF93DF931F92CDB7DEB78C014C
:10053000F42E88E0689FB0011124462F406461E0EA
:10054000C801598325DFCF2C5981D52E7601E8E0EB
:10055000EE0EF11CF60141916F0160E0C80118DF59
:10056000CE14DF04B9F70F90DF91CF911F910F9157
:10057000FF90EF90DF90CF900895FF920F931F931D
:10058000CF93DF93EC01EC81FD81308181E090E03D
:10059000BC010F8002C0660F771F0A94E2F7AC011E
:1005A0000E8002C0440F551F0A94E2F7462B432BDE
:1005B000BC01088402C0660F771F0A94E2F7242F5B
:1005C000262BAC01098402C0440F551F0A94E2F7A0
:1005D000422B9C010A8402C0220F331F0A94E2F7C7
:1005E000242B0B8402C0880F991F0A94E2F7822BF8
:1005F000808383E0F82E01E010E0E881F9819081AA
:10060000B8010F8002C0660F771F0A94E2F79801C5
:100610000E8002C0220F331F0A94E2F7262B292BEB
:10062000B801088402C0660F771F0A94E2F7262BF0
:10063000A801098402C0440F551F0A94E2F7822FD3
:10064000842B98010A8402C0220F331F0A94E2F718
:10065000282BC8010B8402C0880F991F0A94E2F767
:10066000822B8083E881F9812081A8010E8002C05D
:10067000440F551F0A94E2F7C8010F8002C0880F8B
:10068000991F0A94E2F7842B8095822380838FE25E
:1006900095E70197F1F700C00000E881F98120811A
:1006A000C8010E8002C0880F991F0A94E2F7822BBE
:1006B0008083E881F981908198010F8002C0220F28
:1006C000331F0A94E2F7822F809589238083CE011D
:1006D0003FDE8FE097E20197F1F700C00000CE0106
:1006E00037DE87EC90E00197F1F700C00000CE0103
:1006F0002FDE87EC90E00197F1F700C0000062E088
:10070000CE01BFDDCE0124DE87EC90E00197F1F74A
:1007100000C0000048E261E0CE013ADE48E061E05E
:10072000CE0136DE41E061E0CE0132DE46E061E03E
:10073000CE012EDE4CE061E0CE012ADE41E061E038
:10074000CE0126DE9FEF20E782E0915020408040DE
:10075000E1F700C00000FA94F1104FCFDF91CF9184
:100760001F910F91FF900895CF93DF93CDB7DEB720
:100770002C970FB6F894DEBF0FBECDBF81B38C7F30
:1007800081BB8A9A929A899A919884E390E09E8399
:100790008D8385E390E09A83898383E390E09C8353
:1007A0008B8381E08F83188683E0898782E08A8744
:1007B00085E08B8784E08C872FEF81EE94E02150D9
:1007C00080409040E1F700C00000CE010196D5DEE8
:1007D000CE01019641DE87B3866087BB17BC16BC8D
:1007E00086B597B5969587959BBD8ABD86B597B515
:1007F0009695879599BD88BD82EB8FBD8EB5896131
:100800008EBD85B78C6085BF8BB780688BBF7894B1
:1008100083B7816083BF12BE85B5846085BD14BC7B
:1008200008EC10E0EE24EA94FE2C17BC16BC2FEF67
:1008300080E792E0215080409040E1F700C0000046
:1008400017BD06BDFDBCECBC14BC88B7806488BF76
:1008500080916F00811105C022E02A95F1F700C058
:10086000F7CF17BC16BC64B570E080E090E09CD078
:1008700020E030E040E051E425D120E030E04AEFD4
:1008800052E42DD020E030E040E05FE31BD14B018B
:100890005C0140E060E0CE010196E4DDB501A40119
:1008A000CE01019633DE60E670E0CE010196C2DD36
:1008B00040E061E0CE010196D5DD22EB3DE94FEA53
:1008C0005EE3C501B401FED0AB01BC01CE010196CF
:1008D0001DDE67E670E0CE010196ACDDA6CF505874
:1008E000BB27AA270ED0B4C0A5D030F0AAD020F0E4
:1008F00031F49F3F11F41EF49AC00EF4E095E7FB2B
:1009000090C0E92FB6D080F3BA1762077307840747
:10091000950718F071F49EF5CEC00EF4E0950B2EFD
:10092000BA2FA02D0B01B90190010C01CA01A00141
:100930001124FF27591B99F0593F50F4503E68F19C
:100940001A16F040A22F232F342F4427585FF3CFDD
:10095000469537952795A795F0405395C9F77EF4AE
:100960001F16BA0B620B730B840BBAF09150A1F0F7
:10097000FF0FBB1F661F771F881FC2F70EC0BA0F7D
:10098000621F731F841F48F4879577956795B79505
:10099000F7959E3F08F0B3CF9395880F08F09927FD
:1009A000EE0F979587950895E89409C097FB3EF45C
:1009B00090958095709561957F4F8F4F9F4F9923AC
:1009C000A9F0F92F96E9BB279395F695879577952A
:1009D0006795B795F111F8CFFAF4BB0F11F460FFEA
:1009E0001BC06F5F7F4F8F4F9F4F16C0882311F042
:1009F00096E911C0772321F09EE8872F762F05C056
:100A0000662371F096E8862F70E060E02AF09A95F0
:100A1000660F771F881FDAF7880F9695879597F9E5
:100A2000089597F99F6780E870E060E008959FEF70
:100A300080EC089500240A94161617061806090675
:100A4000089500240A941216130614060506089544
:100A5000092E0394000C11F4882352F0BB0F40F4CC
:100A6000BF2B11F460FF04C06F5F7F4F8F4F9F4F0C
:100A7000089557FD9058440F551F59F05F3F71F08E
:100A80004795880F97FB991F61F09F3F79F08795F5
:100A90000895121613061406551FF2CF4695F1DF7E
:100AA00008C0161617061806991FF1CF869571050E
:100AB000610508940895E894BB2766277727CB0142
:100AC00097F908950BD0C4CFB5DF28F0BADF18F03E
:100AD000952309F0A6CFABCF1124EECFCADFA0F348
:100AE000959FD1F3950F50E0551F629FF001729FC3
:100AF000BB27F00DB11D639FAA27F00DB11DAA1FE2
:100B0000649F6627B00DA11D661F829F2227B00D2E
:100B1000A11D621F739FB00DA11D621F839FA00DB9
:100B2000611D221F749F3327A00D611D231F849F09
:100B3000600D211D822F762F6A2F11249F57504060
:100B40008AF0E1F088234AF0EE0FFF1FBB1F661FFB
:100B5000771F881F91505040A9F79E3F510570F0B4
:100B600060CFAACF5F3FECF3983EDCF38695779594
:100B70006795B795F795E7959F5FC1F7FE2B880FAF
:100B8000911D9695879597F90895EF920F931F936E
:100B9000CF93DF93E80147FD02C034E001C034E1A8
:100BA000E42FFF27E7FDF095F7FF03C0F195E195EE
:100BB000F109E32E022F2E2FAE0134D0CE01DF91AA
:100BC000CF911F910F91EF9008954532510518F480
:100BD000423008F004C0FB011082CB010895BB270E
:100BE0004A3031F4992322F4BDE2909581959F4FCC
:100BF00001C0BB27FB015527AA27880F991FAA1FF1
:100C0000A41710F0A41B83955051B9F7A05DAA3327
:100C100008F0A95DA193009779F7B111B1931192F2
:100C2000CB0165C24F925F926F927F929F92AF927B
:100C3000BF92CF92DF92EF92FF920F931F93CF93C9
:100C4000DF93CDB7DEB729970FB6F894DEBF0FBE9E
:100C5000CDBF6A01122FB02E2BE3201720F0FF2406
:100C6000F394F00E02C0BCE3FB2E0F2D27E0AE0183
:100C70004F5F5F4F64D1AC018981982F997091309B
:100C800031F0E1FC06C0E0FE06C090E205C09DE246
:100C900003C09BE201C090E0EE2DE07183FF3CC0F9
:100CA000911102C083E001C084E0811718F4212F64
:100CB000281B01C020E0E1110BC0F601822F30E2B9
:100CC000882319F031938150FBCFC20ED11C20E054
:100CD000992329F0D6019C93F60131966F01C60144
:100CE0000396E2FE0AC03EE4D6013C9341E411962D
:100CF0004C93119712963C9306C03EE6F601308362
:100D000041E641833283FC01322F40E2332309F470
:100D100042C041933150FACF82FF44C0911102C0CA
:100D200083E001C084E0811718F4212F281B01C043
:100D300020E0E1110BC0F601822F30E2882319F088
:100D400031938150FBCFC20ED11C20E0992329F0B2
:100D5000D6019C93F60131966F01C6010396E2FE1F
:100D60000BC039E4D6013C933EE411963C931197B5
:100D700036E412963C9307C039E6F60130833EE62E
:100D8000318336E63283FC01322F40E2332319F0FF
:100D900041933150FBCFFC01E20FF11D10828EEF29
:100DA0009FEFB7C0F1E0911101C0F0E06F2F70E04C
:100DB0001416150624F49A012F5F3F4F02C021E05C
:100DC00030E0260F371FBB2029F06B2D70E06F5FDE
:100DD0007F4F02C060E070E0260F371F612F70E088
:100DE000261737071CF4121B212F01C020E03E2DCF
:100DF000387159F4D601322F60E2332319F06D9324
:100E00003150FBCFC20ED11C20E0FF2331F0D601C0
:100E10009C93B6016F5F7F4F6B01E1110BC0F60130
:100E2000922F30E3992319F031939150FBCFC20EEA
:100E3000D11C20E09F2D940F3A81782F7071A72E3E
:100E400084FF03C0313309F49150191624F499300A
:100E500018F098E001C091E0E42F852F57FF02C001
:100E6000E0E080E06E2F782FE0E0F0E0AEE29A2E36
:100E70003A01691A71082A01461A570A0B2D10E027
:100E80001195019511096F3F8FEF780729F4D6016D
:100E90009C92C60101966C014617570784F06616AE
:100EA00077066CF47F01E40CF51CA1E0B0E0AC0F18
:100EB000BD1FEA0EFB1ED7011196BC9002C090E345
:100EC000B92E615071093196C60101967C016017F7
:100ED000710724F0D601BC926C01D5CF6417750759
:100EE00041F4363320F4353321F4A11002C081E3FC
:100EF000B82EF601B082F701822F90E2882319F014
:100F000091938150FBCFF701E20FF11D108280E039
:100F100090E029960FB6F894DEBF0FBECDBFDF91EB
:100F2000CF911F910F91FF90EF90DF90CF90BF90E6
:100F3000AF909F907F906F905F904F900895283072
:100F400008F027E03327DA01990F311D87FD916002
:100F500000966105710539F432602E5F3D9330E3F0
:100F60002A95E1F708959F3F30F0803871056105BB
:100F700009F03C5F3C5F3D93913008F08068911D23
:100F8000DF93CF931F930F93FF92EF92192F987FC8
:100F90009695E92F96959695E90FFF27E058FF4F14
:100FA00099273327EE24FF24A701E7010590089431
:100FB000079428F4360FE71EF81E491F511D660FCF
:100FC000771F881F991F0694A1F70590079428F4AE
:100FD000E70EF81E491F561FC11D770F881F991F66
:100FE000661F0694A1F70590079428F4F80E491F90
:100FF000561FC71FD11D880F991F661F771F0694A4
:10100000A1F70590079420F4490F561FC71FD81F5A
:10101000990F661F771F881F0694A9F78491109572
:10102000177041F0D695C79557954795F794E79473
:101030001A95C1F7E6E2F0E06894159015913591A4
:101040006591959105907FE27395E118F10A430B44
:10105000560BC90BD009C0F7E10CF11E431F561FF8
:10106000C91FD01D7EF4703311F48A95E6CFE89441
:10107000015030F0080F0AF40027021708F4202F5F
:101080002395022F7A3328F079E37D932A95E9F7A7
:1010900010C07D932A9589F60694979567953795A4
:1010A00017951794E118F10A430B560BC90BD00999
:1010B00098F023957E9173957A3308F070E37C93D2
:1010C0002013B8F77E9170617D9330F0839571E3C2
:1010D0007D9370E32A95E1F71124EF90FF900F9133
:1010E0001F91CF91DF91992787FD90950895DC019D
:1010F000FC01672F71917723E1F7329704C07C914F
:101100006D9370836291AE17BF07C8F30895F8948A
:02111000FFCF0F
:0E111200757320202020006D6D20202020000D
:00000001FF
